:100000000C94D9000C94FA000C94FA000C94FA00A9
:100010000C94FA000C9478020C948F020C94FA0061
:100020000C94FA000C94FA000C94FA000C94FA0068
:100030000C94FA000C94FA000C94FA000C94FA0058
:100040000C94FA000C94FA000C94FA000C94FA0048
:100050000C94FA000C94FA000C94FA000C94FA0038
:100060000C94FA000C94D9080C94FA000C94FA0041
:100070000C94FA000C94FA000C94FA000C94FA0018
:100080000C94FA000C94FA000C94FA000C94FA0008
:100090000C94FA000C94FA000C94FA000C94FA00F8
:1000A0000C94FA000C94FA000C94FA000C94FA00E8
:1000B0000C94FA000C94FA000C94FA000C94FA00D8
:1000C0000C94FA000C94FA000C94FA000C94FA00C8
:1000D0000C94FA000C94FA000C94FA000C94FA00B8
:1000E0000C94FA00084AD73B3BCE016E84BCBFFD9E
:1000F000C12F3D6C74319ABD56833DDA3D00C77FF8
:1001000011BED9E4BB4C3E916BAAAABE0000008090
:100110003F05A84CCDB2D44EB93836A9020C50B91F
:10012000918688083CA6AAAA2ABE000000803F0744
:10013000634236B79BD8A71A39685618AEBAAB5582
:100140008C1D3CB7CC5763BD6DEDFD753EF6177247
:1001500031BF000000803F08000000BE9224491219
:100160003EABAAAA2ABECDCCCC4C3E00000080BE3D
:10017000ABAAAAAA3E00000000BF000000803F001A
:1001800000000000084178D3BB4387D1133D190E0E
:100190003CC3BD4282AD2B3E68EC8276BED98FE176
:1001A000A93E4C80EFFFBE01C4FF7F3F000000006E
:1001B000000011241FBECFEFD1E2DEBFCDBF00E0B3
:1001C0000CBF12E0A0E0B2E0E2E1FFE100E00BBF13
:1001D00002C007900D92A830B107D9F712E0A8E04D
:1001E000B2E001C01D92AD32B107E1F70E94EB0A07
:1001F0000C94870F0C94000086E69EE00197F1F7BF
:1002000000004098419880E388B9429AEFEFF7E404
:100210003197F1F700C000004298E6E6FEE0319722
:10022000F1F700004098419888B9429AEFEFF7E45F
:100230003197F1F700C000004298E6E6FEE0319702
:10024000F1F700004098419888B9429A8FEF97E4FF
:100250000197F1F700C000004298E6E6FEE0319712
:10026000F1F700004098419880E288B9429A8FEFF8
:1002700097E40197F1F700C000004298089598B103
:100280009F7098B998B1282F207F922B98B94098E9
:100290004198429AEFEFF7E43197F1F700C0000080
:1002A000429898B19F7098B998B18295807F892BB8
:1002B00088B940984198429A8FEF97E40197F1F7F7
:1002C00000C00000429808950E94FC0086E69EE06F
:1002D0000197F1F7000088E20E943F0181E00E944F
:1002E0003F0186E00E943F018EE00E943F0180E8CE
:1002F0000E943F01089598B19F7098B998B1282F36
:10030000207F922B98B9409A4198429AEFEFF7E4F8
:100310003197F1F700C00000429898B19F7098B9EA
:1003200098B18295807F892B88B9409A4198429AEA
:100330008FEF97E40197F1F700C00000429808950D
:1003400080E80E943F010895CF93DF93EC018881FC
:10035000882331F021960E947B0189918823D9F767
:10036000DF91CF910895823079F0833018F4813095
:10037000C9F405C0833069F08430A1F40FC0862F22
:1003800081580E943F010895862F81540E943F01A9
:100390000895862F8D560E943F010895862F8D5215
:1003A0000E943F0108950F931F93CF93DF938A011B
:1003B000E901882311F0662319F40E94A00102C00C
:1003C0000E94B301C530D10571F4C80160E177E244
:1003D0000E94730FCB01C09690932102809320025C
:1003E0000E947B0103C0C430D105B9F4C80168EE96
:1003F00073E00E94730FCB0170932302609322027B
:100400006AE070E00E94730FC09690932C02809374
:100410002B020E947B0181E001C080E0C330D10546
:1004200011F08130B1F4C80164E670E00E94730FEE
:10043000CB0170932302609322026AE070E00E9475
:10044000730FC09690932802809327020E947B012D
:1004500081E0C230D10511F08130B1F42AE030E002
:10046000C801B9010E94730FCB01709323026093FE
:100470002202B9010E94730FC096909325028093C7
:1004800024020E947B0181E0C130D10511F081304E
:1004900061F4C8016AE070E00E94730FC096909307
:1004A0002A02809329020E947B01C630D1051CF0EC
:1004B00085E40E947B01DF91CF911F910F910895F8
:1004C0006C98749A08956D98759A0895F894EAE670
:1004D000F0E0808182608083EC9A78940895F894AB
:1004E000EAE6F0E0808188608083ED9A7894089550
:1004F0001F920F920FB60F9211248F939F938091AA
:100500001C0290911D02019690931D0280931C0283
:100510009F918F910F900FBE0F901F9018951F9273
:100520000F920FB60F9211248F939F9380911E020A
:1005300090911F02019690931F0280931E029F913B
:100540008F910F900FBE0F901F9018958FE081B97B
:1005500012B888E180930A0180930B01089510BAC4
:100560001092070186E880937A0010927B0080E267
:1005700080937C0080E880BF089587EF87B988E288
:1005800088B90895E1ECF0E010821092C00086E096
:100590008093C2008FE58093C4001092C50088E963
:1005A000808308950E94A6020E94AF020E94BD02AD
:1005B000F8940E9460020E9463020E946F020E94EF
:1005C000660278940895F8940E94C202789408957F
:1005D000883018F098E090937B0087708062809359
:1005E0007C00EAE7F0E0808180648083808184FF82
:1005F000FDCF80917900EAE7F0E0908190619083EF
:1006000010927B00089586E082B9089589E082B94E
:10061000089585E082B908958AE082B9089512B8F4
:1006200008958093280160932A01089560911E0225
:1006300070911F0280911C0290911D02680F791F1A
:10064000882777FD8095982F0E945B0C28E431EE77
:1006500042E850E40E94740D20E030E040E05FE3A7
:100660000E94740D462F572F682F792FCB01BA01A6
:1006700008956F927F928F929F92AF92BF92CF9286
:10068000DF92EF92FF920F931F93CF93DF938C0132
:100690008091180290911902A0911A02B0911B0248
:1006A00080930C0290930D02A0930E02B0930F0260
:1006B0008091140290911502A0911602B091170238
:1006C0008093080290930902A0930A02B0930B0250
:1006D0000E940903B801882777FD8095982F0E9412
:1006E0005B0C28E431EE42E850E40E94C00B0E940B
:1006F0002D0C80E090E00E94590CC62FD72FB82E09
:10070000A92E10921D0210921C0210921F0210922C
:100710001E02C0901002D0901102E0901202F090E0
:1007200013020F2EF2E08F2EF2E09F2EF02D0F2EEF
:10073000F0E06F2EF2E07F2EF02D0E9416039B0159
:10074000AC01C701B6010E94F20A262F372FF82FFD
:10075000E92F462F572F682F792F4093100250937F
:1007600011026093120270931302822F932FAF2F06
:10077000BE2FBC01CD0120E030E0A9010E94B90BE1
:100780008823F4F481E061E00E94B301C3010E9478
:10079000A4018091100290911102A0911202B091D7
:1007A0001302BC01CD0190580E942D0C8B019C01BD
:1007B00081E062E0A80124E030E00E94D3011AC089
:1007C00081E061E00E94B301C4010E94A401609134
:1007D00010027091110280911202909113020E94F6
:1007E0002D0C8B019C0181E062E0A80124E030E047
:1007F0000E94D30160911E0270911F0280911C0221
:1008000090911D02680F791F772314F46F5F7F4F5B
:1008100075956795882777FD8095982F0E945B0CCA
:100820000C2F1D2F2B2D3A2DA90198010E94690D27
:1008300088230CF482CF0E940F03DF91CF911F9188
:100840000F91FF90EF90DF90CF90BF90AF909F906F
:100850008F907F906F9008956F927F928F929F926A
:10086000AF92BF92CF92DF92EF92FF920F931F93BE
:10087000CF93DF938C018091180290911902A0917F
:100880001A02B0911B0280930C0290930D02A09368
:100890000E02B0930F028091140290911502A09164
:1008A0001602B09117028093080290930902A09358
:1008B0000A02B0930B020E940C03B801882777FD4F
:1008C0008095982F0E945B0C28E431EE42E850E4BA
:1008D0000E94C00B0E942D0C80E090E00E94590CF9
:1008E000C62FD72FB82EA92E10921D0210921C02CF
:1008F00010921F0210921E02C0901002D09011029E
:10090000E0901202F09013020F2EF2E08F2EF2E030
:100910009F2EF02D0F2EF0E06F2EF2E07F2EF02DA7
:100920000E941603A70196010E94F30A262F372F73
:10093000F82FE92F462F572F682F792F4093100259
:10094000509311026093120270931302822F932F1F
:10095000AF2FBE2FBC01CD0120E030E0A9010E94E5
:10096000B90B8823F4F481E061E00E94B301C30174
:100970000E94A4018091100290911102A091120294
:10098000B0911302BC01CD0190580E942D0C8B0137
:100990009C0181E062E0A80124E030E00E94D301E4
:1009A0001AC081E061E00E94B301C4010E94A40169
:1009B00060911002709111028091120290911302C5
:1009C0000E942D0C8B019C0181E062E0A80124E0D3
:1009D00030E00E94D30160911E0270911F0280914D
:1009E0001C0290911D02680F791F772314F46F5F2A
:1009F0007F4F75956795882777FD8095982F0E9482
:100A00005B0C0C2F1D2F2B2D3A2DA90198010E9454
:100A1000690D88230CF484CF0E940F03DF91CF91DE
:100A20001F910F91FF90EF90DF90CF90BF90AF900C
:100A30009F908F907F906F9008950F931F93682FD2
:100A400070E080E090E00E94590C2FEE39EC43E911
:100A50005FE30E94D70DB62FA72F382F292F60E014
:100A600070E080E89FE3422F0B2F1A2F232F342FA3
:100A7000A90198010E94C00B2AE939EF4EE255E422
:100A80000E94740D20E030E040E251E40E94740DB9
:100A90000E94280C862F972F1F910F9108958F92F7
:100AA0009F92AF92BF92CF92DF92EF92FF920F93FD
:100AB0001F93CF93DF936B017C01609110027091C3
:100AC000110280911202909113022CE73FE049E459
:100AD00050E40E94740D20E030E044E353E40E94AF
:100AE000C00BD62FC72F182F092F862F9C2FA12F71
:100AF000B02FBC01CD010E94230EA70196010E94D8
:100B0000740D20910C0230910D0240910E02509113
:100B10000F020E94F30AB62EA72E982E892E862F3A
:100B20009A2DA92DB82D8093180290931902A093A5
:100B30001A02B0931B028D2F9C2FA12FB02FBC0146
:100B4000CD010E94BD0BA70196010E94740D20915A
:100B500008023091090240910A0250910B020E9452
:100B6000F30ADC01CB018093140290931502A09349
:100B70001602B09317028B2D9A2DA92DB82DBC010A
:100B8000CD0120E030E0A9010E94690D8823DCF04E
:100B900081E06DE00E94B30182E092E00E94A40136
:100BA000609118027091190280911A0290911B02B3
:100BB0000E942D0C8B019C0181E06DE0A80124E0D6
:100BC00030E00E94D3016091180270911902809167
:100BD0001A0290911B0220E030E0A9010E94B90B9B
:100BE0008823F4F481E06DE00E94B30180E092E09C
:100BF0000E94A4018091180290911902A0911A02FA
:100C0000B0911B02BC01CD0190580E942D0C8B01AC
:100C10009C0181E06DE0A80124E030E00E94D30156
:100C20006091140270911502809116029091170242
:100C300020E030E0A9010E94690D8823DCF082E009
:100C40006DE00E94B30182E092E00E94A4016091F5
:100C500014027091150280911602909117020E9461
:100C60002D0C8B019C0182E06DE0A80124E030E0B6
:100C70000E94D301609114027091150280911602B6
:100C80009091170220E030E0A9010E94B90B88235F
:100C9000F4F482E06DE00E94B30180E092E00E94F3
:100CA000A4018091140290911502A0911602B091B6
:100CB0001702BC01CD0190580E942D0C8B019C01A4
:100CC00082E06DE0A80124E030E00E94D301DF91D2
:100CD000CF911F910F91FF90EF90DF90CF90BF9039
:100CE000AF909F908F9008950F931F93CF93DF93B2
:100CF00060911C0270911D0280911E0290911F0252
:100D0000680F791F882777FD8095982F0E945B0CCC
:100D100021E73DE34AE05FE30E94740D20E030E00C
:100D200040E05FE30E94740D062F172FD82FC92FC4
:100D3000862F912FAD2FBC2FBC01CD010E944F05F6
:100D4000802F912FAD2FBC2FBC01CD01DF91CF9112
:100D50001F910F9108958F929F92AF92BF92CF9261
:100D6000DF92EF92FF921F93CF93DF9310921D02B9
:100D700010921C0210921F0210921E024C01AA2413
:100D8000BB248BE00E94E8020E941D05BC0180E0AC
:100D900090E00E94590C162FD72FC82FC92E862FEE
:100DA0009D2FAC2FBC2DBC01CD01209104023091B0
:100DB000050240910602509107020E94B90B882358
:100DC00044F4812F9D2FAC2FBC2DBC01CD010E947E
:100DD0001A080E9474066B017C01C501B4010E94CF
:100DE000590C9B01AC01C701B6010E94690D181690
:100DF00044F60E940F03DF91CF911F91FF90EF9077
:100E0000DF90CF90BF90AF909F908F900895CF9339
:100E1000DF93EC010E940303CE010E94AB06DF9139
:100E2000CF9108954F925F926F927F928F929F928F
:100E3000AF92BF92CF92DF92EF92FF920F931F93E8
:100E4000CF93DF932B013C0149015A01C09010025E
:100E5000D0901102E0901202F0901302CA01B90181
:100E6000A70196010E94F20A062F172FD82FC92F2B
:100E7000862F912FAD2FBC2FBC01CD0120E030E09B
:100E8000A9010E94690D18166CF4802F912FAD2FC7
:100E9000BC2FBC01CD010E94280CDC01CB010E94BB
:100EA0002C0419C0802F912FAD2FBC2FBC01CD0178
:100EB00020E030E0A9010E94B90B882364F4C70147
:100EC000B601A50194010E94F20A0E94280CDC01DF
:100ED000CB010E943903C301B2010E942D0CDC0139
:100EE000CB010E940707DF91CF911F910F91FF90D7
:100EF000EF90DF90CF90BF90AF909F908F907F90BA
:100F00006F905F904F9008954F925F926F927F9293
:100F1000AF92BF92CF92DF92EF92FF920F931F9307
:100F2000CF93DF9329013A012091180230911902E1
:100F300040911A0250911B020E94F20AD62EC72E2F
:100F4000B82EA92EC301B2012091140230911502CE
:100F500040911602509117020E94F20AD62FC72F15
:100F6000F82EE92E8D2D9C2DAB2DBA2DBC01CD0177
:100F70000D2F1C2F2F2D3E2DA90198010E94660BCD
:100F80002B013C013F2D8D2F9C2FAF2DBE2DBC0181
:100F9000CD01232F3B2FA90198010E94740DD62F5C
:100FA000C72FF82EE92E3B2D8D2D9C2DAB2DBA2D64
:100FB000BC01CD010D2D1C2D232F3B2FA901980124
:100FC0000E94740DB62FA72F382F292F4D2F5C2F7D
:100FD0006F2D7E2DCB01BA01422F0B2F1A2F232FFD
:100FE000342FA90198010E94F30A0E942D0E6B0173
:100FF0007C0184E664E60E941103C301B2012DE482
:101000003FE245E652E40E94740D9B01AC01C7012A
:10101000B6010E941207DF91CF911F910F91FF90AF
:10102000EF90DF90CF90BF90AF907F906F905F90E8
:101030004F900895CF92DF92EF92FF920F931F93FC
:10104000CF93DF93009118021091190220911A0298
:1010500030911B0200930C0210930D0220930E029C
:1010600030930F0200911402109115022091160284
:1010700030911702009308021093090220930A028C
:1010800030930B020E942D0C80E090E00E94590CDE
:101090006B017C016091040270910502809106024F
:1010A0009091070220E030E040EF51E40E94F30A03
:1010B0009B01AC01C701B6010E94B90B882384F5DE
:1010C000C0E0D0E089E190E00E9439038BE00E940B
:1010D000E8020E941D052196BC0180E090E00E947C
:1010E000590C0E942D0C80E090E00E94590C6B017D
:1010F0007C0160910402709105028091060290913A
:10110000070220E030E040EF51E40E94F30A9B0127
:10111000AC01C701B6010E94B90B88239CF202C042
:10112000C0E0D0E0BE01882777FD8095982F0E940F
:101130005B0C29E134E14DE952E40E94740D20E09A
:1011400030E044E353E40E94C00B0E94BD0B9B01BE
:10115000AC0160E070E080E291E40E94C00B20E00E
:1011600030E040EA50E40E94F30A209110023091EE
:10117000110240911202509113020E94120760E086
:1011800070E0CB019B01AC010E948407DF91CF91FD
:101190001F910F91FF90EF90DF90CF90089578947A
:1011A00060E070E0CB019B01AC010E948407F894E1
:1011B00008951F920F920FB60F920BB60F92112443
:1011C000CF92DF92EF92FF920F931F932F933F9353
:1011D0004F935F936F937F938F939F93AF93BF933F
:1011E000EF93FF93E6ECF0E080818093260280830A
:1011F00010921D0210921C0210921F0210921E02E9
:101200008BE00E94E8020E941D05209126022833EF
:1012100009F05EC0BC0180E090E00E94590C209172
:1012200004023091050240910602509107020E948B
:10123000690D18160CF04CC00E940303809118022F
:1012400090911902A0911A02B0911B0280930C0296
:1012500090930D02A0930E02B0930F02809114029E
:1012600090911502A0911602B09117028093080286
:1012700090930902A0930A02B0930B02789489E933
:1012800099E9A3E081509040A040E1F700000E945E
:101290000F03AFEFBFE81197F1F700C000006091B6
:1012A0001C0270911D0280911E0290911F02F89401
:1012B000680F791F882777FD8095982F0E945B0C17
:1012C00021E73DE34AE05FE30E94740D0E944F0571
:1012D00080912602823309F057C00E940603789459
:1012E00089E999E9A3E081509040A040E1F700002E
:1012F0000E940F03AFEFBFE81197F1F700C00000A5
:1013000060911C0270911D0280911E0290911F023B
:10131000F894680F791F772314F46F5F7F4F7595EA
:101320006795882777FD8095982F0E945B0C21E7B1
:101330003DE34AE05FE30E94740D9B01AC010E9413
:10134000F30A90580E944F0580911802909119025B
:10135000A0911A02B0911B0280930C0290930D028F
:10136000A0930E02B0930F02809114029091150287
:10137000A0911602B091170280930802909309027F
:10138000A0930A02B0930B0280912602843309F0E5
:1013900081C00E94090378948FEF9FE3A2E08150FF
:1013A0009040A040E1F700C000000E940F03AFEFA3
:1013B000BFE81197F1F700C00000C0901002D09074
:1013C0001102E0901202F09013020E94160320E036
:1013D00030E040E450E40E94740D9B01AC01C70171
:1013E000B6010E94F20A262F372FF82FE92F462F39
:1013F000572F682F792F409310025093110260935A
:10140000120270931302822F932FAF2FBE2FBC01B5
:10141000CD0120E030E0A9010E94690D8823E4F0AD
:1014200081E062E00E94B30182E092E00E94A401A8
:10143000609110027091110280911202909113023A
:101440000E942D0C8B019C0181E063E0A80124E047
:1014500030E00E94D3011EC081E062E00E94B3012F
:1014600080E092E00E94A40180911002909111020C
:10147000A0911202B0911302BC01CD0190580E94BC
:101480002D0C8B019C0181E063E0A80124E030E099
:101490000E94D30180912602863309F07DC00E940C
:1014A0000C0378948FEF9FE3A2E081509040A0401E
:1014B000E1F700C000000E940F03AFEFBFE81197F3
:1014C000F1F700C000000E94160320E030E040E485
:1014D00050E40E94740D209110023091110240914D
:1014E0001202509113020E94F30A262F372FF82F71
:1014F000E92F462F572F682F792F409310025093D2
:1015000011026093120270931302822F932FAF2F58
:10151000BE2FBC01CD0120E030E0A9010E94690D81
:101520008823E4F081E062E00E94B30182E092E06F
:101530000E94A40160911002709111028091120228
:10154000909113020E942D0C8B019C0181E063E0BD
:10155000A80124E030E00E94D3011EC081E062E0D7
:101560000E94B30180E092E00E94A40180911002E9
:1015700090911102A0911202B0911302BC01CD0111
:1015800090580E942D0C8B019C0181E063E0A80122
:1015900024E030E00E94D30180912602873311F4C9
:1015A0000E94CF08FF91EF91BF91AF919F918F91D2
:1015B0007F916F915F914F913F912F911F910F916B
:1015C000FF90EF90DF90CF900F900BBE0F900FBE6B
:1015D0000F901F9018950E94D2020E9464010E94F1
:1015E000E302FFCF5058BB27AA270ED027C2F0D165
:1015F00030F0F5D120F031F49F3F11F41EF4C0C15A
:101600000EF4E095E7FBB6C1E92F3AD280F3BA17A2
:10161000620773078407950718F071F49EF552C2AC
:101620000EF4E0950B2EBA2FA02D0B01B9019001FD
:101630000C01CA01A0011124FF27591B99F0593F41
:1016400050F4503E68F11A16F040A22F232F342F89
:101650004427585FF3CF469537952795A795F040D7
:101660005395C9F77EF41F16BA0B620B730B840BEC
:10167000BAF09150A1F0FF0FBB1F661F771F881FA4
:10168000C2F70EC0BA0F621F731F841F48F48795FC
:1016900077956795B795F7959E3F08F0B3CF9395EB
:1016A000880F08F09927EE0F97958795089590D1A8
:1016B00058F080E891E009F49EEF91D128F040E8DD
:1016C00051E059F45EEF09C05BC1FCC1E92FE0783D
:1016D000D7D168F3092E052AC1F326173707480723
:1016E000590738F00E2E07F8E02569F0E025E06490
:1016F0000AC0EF6307F8009407FADB01B9019D0106
:10170000DC01CA01AD01EF934AD098D10AD05F91B4
:10171000552331F02BED3FE049E450FD49EC63CF18
:101720000895DF93DD27B92FBF7740E85FE31616F2
:10173000170648075B0710F4D92FCFD19F938F93DB
:101740007F936F93C8D2E4EEF0E01DD177D12F9153
:101750003F914F915F91D4D1DD2349F09058A2EA97
:101760002AED3FE049EC5FE3D0785D274DDFDF9164
:1017700065C1DCD008F481E0089539D1E3956FC1EB
:101780000CD05CC12CD140F023D130F021F45F3F6C
:1017900019F0F0C0511197C1F3C072D198F3992399
:1017A000C9F35523B1F3951B550BBB27AA27621725
:1017B0007307840738F09F5F5F4F220F331F441F6A
:1017C000AA1FA9F333D00E2E3AF0E0E830D09150A2
:1017D0005040E695001CCAF729D0FE2F27D0660F8F
:1017E000771F881FBB1F261737074807AB07B0E8CE
:1017F00009F0BB0B802DBF01FF2793585F4F2AF0E4
:101800009E3F510568F0B6C05EC15F3FECF3983E65
:10181000DCF3869577956795B795F7959F5FC9F740
:10182000880F911D9695879597F90895E1E0660FC9
:10183000771F881FBB1F621773078407BA0720F042
:10184000621B730B840BBA0BEE1F88F7E0950895AB
:1018500004D06894B11137C108951AD188F09F5708
:1018600090F0B92F9927B751A0F0D1F0660F771FEC
:10187000881F991F1AF0BA95C9F712C0B13081F0CC
:1018800021D1B1E008951EC1672F782F8827B85F56
:1018900039F0B93FCCF3869577956795B395D9F72D
:1018A0003EF490958095709561957F4F8F4F9F4F37
:1018B0000895E89409C097FB3EF490958095709543
:1018C00061957F4F8F4F9F4F9923A9F0F92F96E98C
:1018D000BB279395F695879577956795B795F11101
:1018E000F8CFFAF4BB0F11F460FF1BC06F5F7F4F9E
:1018F0008F4F9F4F16C0882311F096E911C07723B0
:1019000021F09EE8872F762F05C0662371F096E8B8
:10191000862F70E060E02AF09A95660F771F881F87
:10192000DAF7880F9695879597F90895990F00082B
:10193000550FAA0BE0E8FEEF16161706E807F907A1
:10194000C0F012161306E407F50798F0621B730B3C
:10195000840B950B39F40A2661F0232B242B252BBD
:1019600021F408950A2609F4A140A6958FEF811D60
:10197000811D089597F99F6780E870E060E0089501
:101980009FEF80EC0895DF93CF931F930F93FF9207
:10199000EF92DF927B018C01689405C0DA2EEF0193
:1019A000AFD0FE01E894A5912591359145915591CF
:1019B000AEF3EF0129DEFE019701A801DA9479F771
:1019C000DF90EF90FF900F911F91CF91DF910895DD
:1019D00000240A941616170618060906089500240E
:1019E0000A9412161306140605060895C9CF50D09E
:1019F000E8F3E894E0E0BB279F57F0F02AED3FE0E2
:101A000049EC06C0EE0FBB0F661F771F881F28F03A
:101A1000B23A62077307840728F0B25A620B730B5D
:101A2000840BE3959A9572F7803830F49A95BB0F42
:101A3000661F771F881FD2F7904883C1092E039431
:101A4000000C11F4882352F0BB0F40F4BF2B11F4AB
:101A500060FF04C06F5F7F4F8F4F9F4F0895EF93DC
:101A6000E0FF06C0A2EA2AED3FE049EC5FEBCCDDE7
:101A7000E5DF0F90039401FC9058E1E1F1E074C1BF
:101A800057FD9058440F551F59F05F3F71F047952F
:101A9000880F97FB991F61F09F3F79F08795089514
:101AA000121613061406551FF2CF4695F1DF08C033
:101AB000161617061806991FF1CF86957105610550
:101AC00008940895E894BB2766277727CB0197F9F8
:101AD00008952CDF08F48FEF08959B01AC0160E0BE
:101AE00070E080E89FE34CCE0BD0A8CF71DF28F0E8
:101AF00076DF18F0952309F03DCF42CF1124E3CFD4
:101B0000BFDFA0F3959FD1F3950F50E0551F629F63
:101B1000F001729FBB27F00DB11D639FAA27F00D46
:101B2000B11DAA1F649F6627B00DA11D661F829F6D
:101B30002227B00DA11D621F739FB00DA11D621F52
:101B4000839FA00D611D221F749F3327A00D611D6F
:101B5000231F849F600D211D822F762F6A2F112451
:101B60009F5750408AF0E1F088234AF0EE0FFF1FA4
:101B7000BB1F661F771F881F91505040A9F79E3FDB
:101B8000510570F0F7CE9FCF5F3FECF3983EDCF34A
:101B9000869577956795B795F795E7959F5FC1F718
:101BA000FE2B880F911D9695879597F90895FA0158
:101BB000EE0FFF1F30962105310599F16115710572
:101BC00061F48038BFE39B0749F168949038810540
:101BD00061F08038BFEF9B0741F0992342F5FF3F4A
:101BE000E1053105210511F1E8940894E795D90143
:101BF000AA2329F4AB2FBE2FF85FD0F310C0FF5FEC
:101C000070F4A695E0F7F73950F019F0FF3A38F480
:101C10009F779F930CD00F9007FC905808953EF04B
:101C2000AFCE60E070E080E89FE308954FE79F77D4
:101C30005F934F933F932F93E3D02F913F914F9119
:101C40005F9152DF50C09F93D2DE0F9007FCEE5F92
:101C500006CF11F40EF494CE72C01ADFD0F399239C
:101C6000D9F3CEF39F57550B87FF77D00024A0E61A
:101C700040EA900180585695979528F4805C660F4D
:101C8000771F881F20F026173707480730F4621B9C
:101C9000730B840B202931294A2BA695179407949E
:101CA000202531254A2758F7660F771F881F20F017
:101CB00026173707480730F4620B730B840B200D8F
:101CC000311D411DA09581F7B901842F9158880FCE
:101CD0009695879508959B01AC0106CF19F40EF0F7
:101CE00049CEF0CE4DCED4DEC8F39638C0F707F813
:101CF0000F92E8942BE33AEA48EB5FE703DF0F9299
:101D00000F920F924DB75EB70F92BAD0EFE2F1E0AB
:101D10003ADE4F915F91EF91FF91E595EE1FFF1F26
:101D200049F0FE57E0684427EE0F441FFA95E1F7AB
:101D30004195550B2CD00F9007FECFCE08959F3FB5
:101D400031F0915020F4879577956795B795880F76
:101D5000911D9695879597F9089591505040660F7B
:101D6000771F881FD2F708959F938F937F936F9368
:101D7000FF93EF939B01AC01B7DEEF91FF9103DE80
:101D80002F913F914F915F91AFCEF4CDD8CF80DEB0
:101D9000E8F39923D9F3940F511DBBF391505040B0
:101DA00094F059F0882332F0660F771F881F915006
:101DB0005040C1F79E3F510544F7880F911D9695FD
:101DC000879597F908955F3FACF0983E9CF0BB274C
:101DD000869577956795B79508F4B1609395C1F7A7
:101DE000BB0F58F711F460FFE8CF6F5F7F4F8F4F45
:101DF0009F4FE3CF68CE0EF0A2CFC2CD6894BACD8C
:101E000047DEC8F39923D1F3C6F3DF93CF931F9333
:101E10000F93FF92C92FDD2788232AF02197660FA1
:101E2000771F881FDAF720E030E040E85FEB9FE3A0
:101E3000883920F0803E30F021968F77D4DBE7E5BB
:101E4000F1E003C0D0DBE4E8F1E09DDD8B01BE01F1
:101E5000EC01FB2E6F5771097595771F880B990B55
:101E60002ADD28E132E741E35FE34ADEAF2D980146
:101E7000AE01FF900F911F91CF91DF91C5DBDECDB9
:101E8000FA01DC01AA0FBB1F9B01AC01BF5728F46C
:101E900022273327442750781FC0B75188F4AB2F2F
:101EA0000024469537952795011CA395D2F3002071
:101EB00069F0220F331F441FB395DAF30DD092CB94
:101EC00061307105A0E88A07B94630F49B01AC0186
:101ED0006627772788279078309621F020833183F2
:101EE000428353830895AA1BBB1B51E107C0AA1F5D
:101EF000BB1FA617B70710F0A61BB70B881F991FAB
:101F00005A95A9F780959095BC01CD010895F89454
:021F1000FFCF01
:081F12002D002B000000C84265
:00000001FF
